{
  "contractName": "SimpleToken",
  "abi": [
    {
      "inputs": [
        {
          "internalType": "uint256",
          "name": "initialSupply",
          "type": "uint256"
        }
      ],
      "stateMutability": "nonpayable",
      "type": "constructor"
    },
    {
      "anonymous": false,
      "inputs": [
        {
          "indexed": true,
          "internalType": "address",
          "name": "from",
          "type": "address"
        },
        {
          "indexed": false,
          "internalType": "uint256",
          "name": "value",
          "type": "uint256"
        }
      ],
      "name": "Burn",
      "type": "event"
    },
    {
      "anonymous": false,
      "inputs": [
        {
          "indexed": true,
          "internalType": "address",
          "name": "to",
          "type": "address"
        },
        {
          "indexed": false,
          "internalType": "uint256",
          "name": "value",
          "type": "uint256"
        }
      ],
      "name": "Mint",
      "type": "event"
    },
    {
      "anonymous": false,
      "inputs": [
        {
          "indexed": true,
          "internalType": "address",
          "name": "from",
          "type": "address"
        },
        {
          "indexed": true,
          "internalType": "address",
          "name": "to",
          "type": "address"
        },
        {
          "indexed": false,
          "internalType": "uint256",
          "name": "value",
          "type": "uint256"
        }
      ],
      "name": "Transfer",
      "type": "event"
    },
    {
      "inputs": [
        {
          "internalType": "address",
          "name": "",
          "type": "address"
        }
      ],
      "name": "balances",
      "outputs": [
        {
          "internalType": "uint256",
          "name": "",
          "type": "uint256"
        }
      ],
      "stateMutability": "view",
      "type": "function"
    },
    {
      "inputs": [],
      "name": "decimals",
      "outputs": [
        {
          "internalType": "uint8",
          "name": "",
          "type": "uint8"
        }
      ],
      "stateMutability": "view",
      "type": "function"
    },
    {
      "inputs": [],
      "name": "name",
      "outputs": [
        {
          "internalType": "string",
          "name": "",
          "type": "string"
        }
      ],
      "stateMutability": "view",
      "type": "function"
    },
    {
      "inputs": [],
      "name": "owner",
      "outputs": [
        {
          "internalType": "address",
          "name": "",
          "type": "address"
        }
      ],
      "stateMutability": "view",
      "type": "function"
    },
    {
      "inputs": [],
      "name": "symbol",
      "outputs": [
        {
          "internalType": "string",
          "name": "",
          "type": "string"
        }
      ],
      "stateMutability": "view",
      "type": "function"
    },
    {
      "inputs": [],
      "name": "totalSupply",
      "outputs": [
        {
          "internalType": "uint256",
          "name": "",
          "type": "uint256"
        }
      ],
      "stateMutability": "view",
      "type": "function"
    },
    {
      "inputs": [
        {
          "internalType": "address",
          "name": "recipient",
          "type": "address"
        },
        {
          "internalType": "uint256",
          "name": "amount",
          "type": "uint256"
        }
      ],
      "name": "transfer",
      "outputs": [
        {
          "internalType": "bool",
          "name": "",
          "type": "bool"
        }
      ],
      "stateMutability": "nonpayable",
      "type": "function"
    },
    {
      "inputs": [
        {
          "internalType": "address",
          "name": "account",
          "type": "address"
        }
      ],
      "name": "balanceOf",
      "outputs": [
        {
          "internalType": "uint256",
          "name": "",
          "type": "uint256"
        }
      ],
      "stateMutability": "view",
      "type": "function"
    },
    {
      "inputs": [
        {
          "internalType": "address",
          "name": "recipient",
          "type": "address"
        },
        {
          "internalType": "uint256",
          "name": "amount",
          "type": "uint256"
        }
      ],
      "name": "mint",
      "outputs": [],
      "stateMutability": "nonpayable",
      "type": "function"
    },
    {
      "inputs": [
        {
          "internalType": "address",
          "name": "account",
          "type": "address"
        },
        {
          "internalType": "uint256",
          "name": "amount",
          "type": "uint256"
        }
      ],
      "name": "burn",
      "outputs": [],
      "stateMutability": "nonpayable",
      "type": "function"
    }
  ],
  "bytecode": "0x60806040526040518060400160405280600c81526020017f53696d706c6520546f6b656e0000000000000000000000000000000000000000815250600090816200004a9190620003f0565b506040518060400160405280600281526020017f535400000000000000000000000000000000000000000000000000000000000081525060019081620000919190620003f0565b506012600260006101000a81548160ff021916908360ff160217905550348015620000bb57600080fd5b506040516200149d3803806200149d8339818101604052810190620000e191906200050d565b80600381905550600354600560003373ffffffffffffffffffffffffffffffffffffffff1673ffffffffffffffffffffffffffffffffffffffff1681526020019081526020016000208190555033600460006101000a81548173ffffffffffffffffffffffffffffffffffffffff021916908373ffffffffffffffffffffffffffffffffffffffff160217905550506200053f565b600081519050919050565b7f4e487b7100000000000000000000000000000000000000000000000000000000600052604160045260246000fd5b7f4e487b7100000000000000000000000000000000000000000000000000000000600052602260045260246000fd5b60006002820490506001821680620001f857607f821691505b6020821081036200020e576200020d620001b0565b5b50919050565b60008190508160005260206000209050919050565b60006020601f8301049050919050565b600082821b905092915050565b600060088302620002787fffffffffffffffffffffffffffffffffffffffffffffffffffffffffffffffff8262000239565b62000284868362000239565b95508019841693508086168417925050509392505050565b6000819050919050565b6000819050919050565b6000620002d1620002cb620002c5846200029c565b620002a6565b6200029c565b9050919050565b6000819050919050565b620002ed83620002b0565b62000305620002fc82620002d8565b84845462000246565b825550505050565b600090565b6200031c6200030d565b62000329818484620002e2565b505050565b5b8181101562000351576200034560008262000312565b6001810190506200032f565b5050565b601f821115620003a0576200036a8162000214565b620003758462000229565b8101602085101562000385578190505b6200039d620003948562000229565b8301826200032e565b50505b505050565b600082821c905092915050565b6000620003c560001984600802620003a5565b1980831691505092915050565b6000620003e08383620003b2565b9150826002028217905092915050565b620003fb8262000176565b67ffffffffffffffff81111562000417576200041662000181565b5b620004238254620001df565b6200043082828562000355565b600060209050601f83116001811462000468576000841562000453578287015190505b6200045f8582620003d2565b865550620004cf565b601f198416620004788662000214565b60005b82811015620004a2578489015182556001820191506020850194506020810190506200047b565b86831015620004c25784890151620004be601f891682620003b2565b8355505b6001600288020188555050505b505050505050565b600080fd5b620004e7816200029c565b8114620004f357600080fd5b50565b6000815190506200050781620004dc565b92915050565b600060208284031215620005265762000525620004d7565b5b60006200053684828501620004f6565b91505092915050565b610f4e806200054f6000396000f3fe608060405234801561001057600080fd5b506004361061009e5760003560e01c806370a082311161006657806370a08231146101495780638da5cb5b1461017957806395d89b41146101975780639dc29fac146101b5578063a9059cbb146101d15761009e565b806306fdde03146100a357806318160ddd146100c157806327e235e3146100df578063313ce5671461010f57806340c10f191461012d575b600080fd5b6100ab610201565b6040516100b89190610a62565b60405180910390f35b6100c961028f565b6040516100d69190610a9d565b60405180910390f35b6100f960048036038101906100f49190610b1b565b610295565b6040516101069190610a9d565b60405180910390f35b6101176102ad565b6040516101249190610b64565b60405180910390f35b61014760048036038101906101429190610bab565b6102c0565b005b610163600480360381019061015e9190610b1b565b610454565b6040516101709190610a9d565b60405180910390f35b61018161049d565b60405161018e9190610bfa565b60405180910390f35b61019f6104c3565b6040516101ac9190610a62565b60405180910390f35b6101cf60048036038101906101ca9190610bab565b610551565b005b6101eb60048036038101906101e69190610bab565b610767565b6040516101f89190610c30565b60405180910390f35b6000805461020e90610c7a565b80601f016020809104026020016040519081016040528092919081815260200182805461023a90610c7a565b80156102875780601f1061025c57610100808354040283529160200191610287565b820191906000526020600020905b81548152906001019060200180831161026a57829003601f168201915b505050505081565b60035481565b60056020528060005260406000206000915090505481565b600260009054906101000a900460ff1681565b600460009054906101000a900473ffffffffffffffffffffffffffffffffffffffff1673ffffffffffffffffffffffffffffffffffffffff163373ffffffffffffffffffffffffffffffffffffffff1614610350576040517f08c379a000000000000000000000000000000000000000000000000000000000815260040161034790610d1d565b60405180910390fd5b60008111610393576040517f08c379a000000000000000000000000000000000000000000000000000000000815260040161038a90610d89565b60405180910390fd5b80600360008282546103a59190610dd8565b9250508190555080600560008473ffffffffffffffffffffffffffffffffffffffff1673ffffffffffffffffffffffffffffffffffffffff16815260200190815260200160002060008282546103fb9190610dd8565b925050819055508173ffffffffffffffffffffffffffffffffffffffff167f0f6798a560793a54c3bcfe86a93cde1e73087d944c0ea20544137d4121396885826040516104489190610a9d565b60405180910390a25050565b6000600560008373ffffffffffffffffffffffffffffffffffffffff1673ffffffffffffffffffffffffffffffffffffffff168152602001908152602001600020549050919050565b600460009054906101000a900473ffffffffffffffffffffffffffffffffffffffff1681565b600180546104d090610c7a565b80601f01602080910402602001604051908101604052809291908181526020018280546104fc90610c7a565b80156105495780601f1061051e57610100808354040283529160200191610549565b820191906000526020600020905b81548152906001019060200180831161052c57829003601f168201915b505050505081565b600460009054906101000a900473ffffffffffffffffffffffffffffffffffffffff1673ffffffffffffffffffffffffffffffffffffffff163373ffffffffffffffffffffffffffffffffffffffff16146105e1576040517f08c379a00000000000000000000000000000000000000000000000000000000081526004016105d890610d1d565b60405180910390fd5b60008111610624576040517f08c379a000000000000000000000000000000000000000000000000000000000815260040161061b90610d89565b60405180910390fd5b80600560008473ffffffffffffffffffffffffffffffffffffffff1673ffffffffffffffffffffffffffffffffffffffff1681526020019081526020016000205410156106a6576040517f08c379a000000000000000000000000000000000000000000000000000000000815260040161069d90610e58565b60405180910390fd5b80600360008282546106b89190610e78565b9250508190555080600560008473ffffffffffffffffffffffffffffffffffffffff1673ffffffffffffffffffffffffffffffffffffffff168152602001908152602001600020600082825461070e9190610e78565b925050819055508173ffffffffffffffffffffffffffffffffffffffff167fcc16f5dbb4873280815c1ee09dbd06736cffcc184412cf7a71a0fdb75d397ca58260405161075b9190610a9d565b60405180910390a25050565b600081600560003373ffffffffffffffffffffffffffffffffffffffff1673ffffffffffffffffffffffffffffffffffffffff1681526020019081526020016000205410156107eb576040517f08c379a00000000000000000000000000000000000000000000000000000000081526004016107e290610e58565b60405180910390fd5b600560008473ffffffffffffffffffffffffffffffffffffffff1673ffffffffffffffffffffffffffffffffffffffff1681526020019081526020016000205482600560008673ffffffffffffffffffffffffffffffffffffffff1673ffffffffffffffffffffffffffffffffffffffff168152602001908152602001600020546108769190610dd8565b10156108b7576040517f08c379a00000000000000000000000000000000000000000000000000000000081526004016108ae90610ef8565b60405180910390fd5b81600560003373ffffffffffffffffffffffffffffffffffffffff1673ffffffffffffffffffffffffffffffffffffffff16815260200190815260200160002060008282546109069190610e78565b9250508190555081600560008573ffffffffffffffffffffffffffffffffffffffff1673ffffffffffffffffffffffffffffffffffffffff168152602001908152602001600020600082825461095c9190610dd8565b925050819055508273ffffffffffffffffffffffffffffffffffffffff163373ffffffffffffffffffffffffffffffffffffffff167fddf252ad1be2c89b69c2b068fc378daa952ba7f163c4a11628f55a4df523b3ef846040516109c09190610a9d565b60405180910390a36001905092915050565b600081519050919050565b600082825260208201905092915050565b60005b83811015610a0c5780820151818401526020810190506109f1565b60008484015250505050565b6000601f19601f8301169050919050565b6000610a34826109d2565b610a3e81856109dd565b9350610a4e8185602086016109ee565b610a5781610a18565b840191505092915050565b60006020820190508181036000830152610a7c8184610a29565b905092915050565b6000819050919050565b610a9781610a84565b82525050565b6000602082019050610ab26000830184610a8e565b92915050565b600080fd5b600073ffffffffffffffffffffffffffffffffffffffff82169050919050565b6000610ae882610abd565b9050919050565b610af881610add565b8114610b0357600080fd5b50565b600081359050610b1581610aef565b92915050565b600060208284031215610b3157610b30610ab8565b5b6000610b3f84828501610b06565b91505092915050565b600060ff82169050919050565b610b5e81610b48565b82525050565b6000602082019050610b796000830184610b55565b92915050565b610b8881610a84565b8114610b9357600080fd5b50565b600081359050610ba581610b7f565b92915050565b60008060408385031215610bc257610bc1610ab8565b5b6000610bd085828601610b06565b9250506020610be185828601610b96565b9150509250929050565b610bf481610add565b82525050565b6000602082019050610c0f6000830184610beb565b92915050565b60008115159050919050565b610c2a81610c15565b82525050565b6000602082019050610c456000830184610c21565b92915050565b7f4e487b7100000000000000000000000000000000000000000000000000000000600052602260045260246000fd5b60006002820490506001821680610c9257607f821691505b602082108103610ca557610ca4610c4b565b5b50919050565b7f4f6e6c79206f776e65722063616e20706572666f726d2074686973206163746960008201527f6f6e000000000000000000000000000000000000000000000000000000000000602082015250565b6000610d076022836109dd565b9150610d1282610cab565b604082019050919050565b60006020820190508181036000830152610d3681610cfa565b9050919050565b7f496e76616c696420616d6f756e74000000000000000000000000000000000000600082015250565b6000610d73600e836109dd565b9150610d7e82610d3d565b602082019050919050565b60006020820190508181036000830152610da281610d66565b9050919050565b7f4e487b7100000000000000000000000000000000000000000000000000000000600052601160045260246000fd5b6000610de382610a84565b9150610dee83610a84565b9250828201905080821115610e0657610e05610da9565b5b92915050565b7f496e73756666696369656e742062616c616e6365000000000000000000000000600082015250565b6000610e426014836109dd565b9150610e4d82610e0c565b602082019050919050565b60006020820190508181036000830152610e7181610e35565b9050919050565b6000610e8382610a84565b9150610e8e83610a84565b9250828203905081811115610ea657610ea5610da9565b5b92915050565b7f4f766572666c6f77000000000000000000000000000000000000000000000000600082015250565b6000610ee26008836109dd565b9150610eed82610eac565b602082019050919050565b60006020820190508181036000830152610f1181610ed5565b905091905056fea26469706673582212204ec7ca027a92cce7883401f0e211aa52272816531c404a1150cb39e55486152264736f6c63430008120033",
  "immutableReferences": {},
  "source": "// SPDX-License-Identifier: GPL-3.0\r\npragma solidity ^0.8.0;\r\n\r\ncontract SimpleToken {\r\n    string public name = \"Simple Token\";\r\n    string public symbol = \"ST\";\r\n    uint8 public decimals = 18;\r\n    uint256 public totalSupply;\r\n    address public owner;\r\n\r\n    mapping (address => uint256) public balances;\r\n    event Transfer(address indexed from, address indexed to, uint256 value);\r\n    event Mint(address indexed to, uint256 value);\r\n    event Burn(address indexed from, uint256 value);\r\n\r\n    constructor(uint256 initialSupply) public {\r\n        totalSupply = initialSupply;\r\n        balances[msg.sender] = totalSupply;\r\n        owner = msg.sender;\r\n    }\r\n\r\n    function transfer(address recipient, uint256 amount) public returns (bool) {\r\n        require(balances[msg.sender] >= amount, \"Insufficient balance\");\r\n        require(balances[recipient] + amount >= balances[recipient], \"Overflow\");\r\n\r\n        balances[msg.sender] -= amount;\r\n        balances[recipient] += amount;\r\n        emit Transfer(msg.sender, recipient, amount);\r\n        return true;\r\n    }\r\n\r\n    function balanceOf(address account) public view returns (uint256) {\r\n        return balances[account];\r\n    }\r\n\r\n    function mint(address recipient, uint256 amount) public onlyOwner {\r\n        require(amount > 0, \"Invalid amount\");\r\n        totalSupply += amount;\r\n        balances[recipient] += amount;\r\n        emit Mint(recipient, amount);\r\n    }\r\n\r\n    function burn(address account, uint256 amount) public onlyOwner {\r\n        require(amount > 0, \"Invalid amount\");\r\n        require(balances[account] >= amount, \"Insufficient balance\");\r\n        totalSupply -= amount;\r\n        balances[account] -= amount;\r\n        emit Burn(account, amount);\r\n    }\r\n\r\n    modifier onlyOwner() {\r\n        require(msg.sender == owner, \"Only owner can perform this action\");\r\n        _;\r\n    }\r\n}",
  "sourcePath": "C:\\Users\\Vladjo\\Desktop\\Zavrsni_ISBT\\contracts\\NewContract.sol",
  "compiler": {
    "name": "solc",
    "version": "0.8.18+commit.87f61d96.Emscripten.clang"
  },
  "schemaVersion": "3.4.11",
  "updatedAt": "2023-03-01T17:09:54.458Z",
  "devdoc": {
    "kind": "dev",
    "methods": {},
    "version": 1
  },
  "userdoc": {
    "kind": "user",
    "methods": {},
    "version": 1
  }
}